:100000000C942A000C943F000C943F000C943F0089
:100010000C943F000C943F000C943F000C943F0064
:100020000C943F000C943F000C943F000C943F0054
:100030000C943F000C943F000C943F000C943F0044
:100040000C943F000C943F000C943F000C943F0034
:100050000C943F0011241FBECFE5D8E0DEBFCDBF1A
:1000600010E0A0E6B0E0E2E0F7E302C005900D92F8
:10007000AE3FB107D9F70E948D170C947F1B0C94EB
:100080000000EF92FF920F931F937B018C0120E001
:1000900030E040E05FE40E94410388238CF0C80117
:1000A000B70120E030E040E05FE40E94B9010E9427
:1000B000A1039B01AC01205030404040504806C095
:1000C000C801B7010E94A1039B01AC01B901CA019B
:1000D0001F910F91FF90EF900895A0E0B0E0E3E74B
:1000E000F0E00C94481BDC012B01FA019C9192304A
:1000F00008F439C1EB018881823008F433C19430AF
:1001000069F4843009F02FC111969C91119789816F
:10011000981709F428C1A6EEB0E025C1843009F48F
:1001200021C18230A9F4923009F01DC19A01AD01BC
:1001300088E0EA010990AE01E90109929E0181502F
:10014000C1F7E201898111969C918923818308C1BD
:10015000923009F407C112962D903C901397EB0151
:100160008A819B811496AD90BD90CD90DC901797BD
:10017000EC80FD800E811F819101281B390BB90194
:1001800037FF04C066277727621B730B6032710547
:100190000CF061C0121613066CF537014801062EEB
:1001A00004C096948794779467940A94D2F721E0D8
:1001B00030E040E050E004C0220F331F441F551FC1
:1001C0006A95D2F721503040404050402E213F21C7
:1001D00040235123211531054105510521F021E02E
:1001E00030E040E050E079018A01E628F72808294C
:1001F00019293CC0232BD1F1260E371E35014601AB
:10020000062E04C096948794779467940A94D2F744
:1002100021E030E040E050E004C0220F331F441FD3
:10022000551F6A95D2F721503040404050402A2156
:100230003B214C215D21211531054105510521F05E
:1002400021E030E040E050E059016A01A628B728DB
:10025000C828D9280BC0821593052CF01C01AA24AC
:10026000BB24650103C0EE24FF24870111969C91F5
:10027000D20111968C91981709F445C0992339F051
:10028000A80197012A193B094C095D0906C0A6017E
:1002900095012E193F09400B510B57FD08C01182E3
:1002A0003382228224833583468357831DC081E0B5
:1002B00081833382228288279927DC01821B930B5A
:1002C000A40BB50B84839583A683B7830DC0220F3F
:1002D000331F441F551F24833583468357838281F0
:1002E000938101979383828324813581468157814D
:1002F000DA01C9010197A109B1098F5F9F4FAF4F83
:10030000BF4328F30BC0918333822282EA0CFB1C8B
:100310000C1D1D1DE482F5820683178383E0808314
:10032000248135814681578157FF1AC0C901AA2708
:1003300097FDA095BA2F81709070A070B0705695FF
:10034000479537952795822B932BA42BB52B848328
:100350009583A683B7838281938101969383828359
:10036000DF0101C0D201CD01CDB7DEB7E2E10C94CF
:10037000641BA0E2B0E0EFEBF1E00C94541B698346
:100380007A838B839C832D833E834F835887E9E058
:10039000EE2EF12CEC0EFD1ECE010196B7010E944F
:1003A000CA048E010F5E1F4FCE010596B8010E9450
:1003B000CA048A8991E089278A8BC701B801AE01F6
:1003C000475E5F4F0E946D000E94F503A096E6E035
:1003D0000C94701BA0E2B0E0E0EFF1E00C94541B31
:1003E00069837A838B839C832D833E834F835887D5
:1003F000F9E0EF2EF12CEC0EFD1ECE010196B701B7
:100400000E94CA048E010F5E1F4FCE010596B801EF
:100410000E94CA04C701B801AE01475E5F4F0E9447
:100420006D000E94F503A096E6E00C94701BA0E21C
:10043000B0E0EDE1F2E00C94481B69837A838B8392
:100440009C832D833E834F835887CE010196BE0146
:10045000675F7F4F0E94CA04CE010596BE016F5EA2
:100460007F4F0E94CA049985923088F08989823032
:10047000C8F0943019F4823051F404C0843029F467
:10048000923081F486EE90E0C6C0923049F420E0CC
:100490009A858A89981321E02A87CE010996BBC0E4
:1004A000823049F420E09A858A89981321E02A8BCA
:1004B000CE014196B0C02D843E844F8458886D880B
:1004C0007E888F88988CEE24FF248701AA24BB2481
:1004D000650140E050E060E070E0E0E0F0E0C10184
:1004E00081709070892BE9F0E60CF71C081D191D2E
:1004F0009A01AB012A0D3B1D4C1D5D1D80E090E073
:10050000A0E0B0E0E614F7040805190520F481E046
:1005100090E0A0E0B0E0BA01A901480F591F6A1F9E
:100520007B1FAA0CBB1CCC1CDD1C97FE08C081E005
:1005300090E0A0E0B0E0A82AB92ACA2ADB2A3196C6
:10054000E032F10549F0660C771C881C991C569422
:10055000479437942794C3CFFA85EA892B893C893D
:100560008B859C85280F391F2E5F3F4F17C0CA010E
:1005700081709070892B61F016950795F794E79438
:1005800080E090E0A0E0B0E8E82AF92A0A2B1B2BD3
:1005900076956795579547952F5F3F4F77FDE7CF46
:1005A0000CC0440F551F661F771F17FD4160EE0CEE
:1005B000FF1C001F111F21503040403090E05907B0
:1005C00090E0690790E4790760F32B8F3C8FDB01A3
:1005D000CA018F779070A070B07080349105A1052A
:1005E000B10561F447FD0AC0E114F10401051105EC
:1005F00029F0405C5F4F6F4F7F4F40781A8EFE1797
:1006000011F081E08A8F4D8F5E8F6F8F78A383E02A
:10061000898FCE0149960E94F503A096E2E10C94E1
:10062000641BA8E1B0E0E7E1F3E00C94541B69839C
:100630007A838B839C832D833E834F83588789E005
:10064000E82EF12CEC0EFD1ECE010196B7010E94A2
:10065000CA048E010F5E1F4FCE010596B8010E949D
:10066000CA048985823040F08989823028F0C70128
:10067000B8010E94420501C08FEF6896E6E00C9435
:10068000701BA8E1B0E0E7E4F3E00C94541B69832D
:100690007A838B839C832D833E834F83588789E0A5
:1006A000E82EF12CEC0EFD1ECE010196B7010E9442
:1006B000CA048E010F5E1F4FCE010596B8010E943D
:1006C000CA048985823040F08989823028F0C701C8
:1006D000B8010E94420501C08FEF6896E6E00C94D5
:1006E000701BA8E1B0E0E7E7F3E00C94541B6983CA
:1006F0007A838B839C832D833E834F83588789E045
:10070000E82EF12CEC0EFD1ECE010196B7010E94E1
:10071000CA048E010F5E1F4FCE010596B8010E94DC
:10072000CA048985823040F08989823028F0C70167
:10073000B8010E94420501C081E06896E6E00C9491
:10074000701BACE0B0E0E7EAF3E00C94581B69835F
:100750007A838B839C83CE010196BE016B5F7F4FB2
:100760000E94CA048D81823061F1823050F1843060
:1007700021F48E81882351F12EC02F81388537FDD9
:1007800020C06E812F3131051CF06623F9F023C0A3
:100790008EE190E0821B930B29853A854B855C8521
:1007A00004C056954795379527958A95D2F76623C5
:1007B000B1F050954095309521953F4F4F4F5F4F89
:1007C0000EC020E030E040E050E009C02FEF3FEFE6
:1007D0004FEF5FE704C020E030E040E050E8B901AF
:1007E000CA012C96E2E00C94741BDF92EF92FF9208
:1007F0000F931F93FC01E480F58006811781D1805F
:100800008081823048F480E090E0A0E1B0E0E82A06
:10081000F92A0A2B1B2BA5C0843009F49FC0823013
:1008200021F4EE24FF24870105C0E114F104010541
:10083000110519F4E0E0F0E096C0628173819FEF4A
:10084000623879070CF05BC022E83FEF261B370BBC
:100850002A3131052CF020E030E040E050E02AC0A1
:10086000B801A701022E04C0769567955795479564
:100870000A94D2F781E090E0A0E0B0E004C0880FD5
:10088000991FAA1FBB1F2A95D2F70197A109B10989
:100890008E219F21A023B1230097A105B10521F04E
:1008A00081E090E0A0E0B0E09A01AB01282B392B69
:1008B0004A2B5B2BDA01C9018F779070A070B07062
:1008C00080349105A105B10539F427FF09C0205CEA
:1008D0003F4F4F4F5F4F04C0215C3F4F4F4F5F4F23
:1008E000E0E0F0E02030A0E03A07A0E04A07A0E412
:1008F0005A0710F0E1E0F0E079018A0127C0603882
:10090000710564F5FB01E158FF4FD801C7018F77EE
:100910009070A070B07080349105A105B10539F4D4
:10092000E7FE0DC080E490E0A0E0B0E004C08FE3FB
:1009300090E0A0E0B0E0E80EF91E0A1F1B1F17FFB1
:1009400005C016950795F794E794319687E01695BC
:100950000795F794E7948A95D1F705C0EE24FF2414
:100960008701EFEFF0E06E2F679566276795902F70
:100970009F77D794DD24D7948E2F8695492F462BC9
:10098000582F5D29B701CA011F910F91FF90EF9079
:10099000DF900895FC01DB01408151812281622FAB
:1009A0006F7770E0221F2227221F9381892F880FE3
:1009B000822B282F30E0991F9927991F11969C931D
:1009C000119721153105A9F54115510561057105ED
:1009D00011F482E037C082E89FEF13969C938E93C8
:1009E00012979A01AB0167E0220F331F441F551F76
:1009F0006A95D1F783E08C930DC0220F331F441FFB
:100A0000551F12968D919C911397019713969C9365
:100A10008E931297203080E0380780E0480780E40A
:100A2000580758F314962D933D934D935C93179765
:100A300008952F3F310579F4411551056105710580
:100A400019F484E08C93089564FF03C081E08C93D3
:100A500012C01C9210C02F57304013963C932E9317
:100A6000129783E08C9387E0440F551F661F771F12
:100A70008A95D1F7706414964D935D936D937C9332
:100A8000179708951F93DC01FB019C91923008F4A5
:100A900047C08081823008F443C0943051F41196ED
:100AA0001C91843099F58181682F70E0611B710978
:100AB0003FC0843021F0923031F48230B9F181812D
:100AC000882389F12DC011961C9111978230F1F085
:100AD00081811817D9F412962D913C911397828138
:100AE00093818217930794F028173907BCF0149666
:100AF0008D919D910D90BC91A02D248135814681D1
:100B00005781281739074A075B0718F4112341F06A
:100B10000AC082179307A407B50740F4112319F000
:100B200061E070E005C06FEF7FEF02C060E070E051
:100B3000CB011F910895DF93CF93CDB7DEB70E940D
:100B400058130E949B140E9453140E946A1082E062
:100B500064E041E00E94870BCF91DF910895DF931D
:100B6000CF9300D000D0CDB7DEB78AE09E012F5FD3
:100B70003F4FB9010E9479149E012E5F3F4F8BE0D9
:100B8000B9010E9479149E012D5F3F4F8CE0B9019D
:100B90000E9479149E012C5F3F4F8DE0B9010E94A5
:100BA00079148AE060E30E945D148BE060E30E94A8
:100BB0005D148CE060E30E945D148DE060E30E94B0
:100BC0005D140F900F900F900F90CF91DF910895CB
:100BD000DF93CF93CDB7DEB7A7970FB6F894DEBFFC
:100BE0000FBECDBF1E8E8AC084E28D8F0E948B13F4
:100BF0008D8F8D8D8432D1F38E8D282F30E0CE01F4
:100C00004F96FC01E20FF31F8D8D808380E090E012
:100C1000A8ECB2E4898F9A8FAB8FBC8F698D7A8DE7
:100C20008B8D9C8D20E030E04AEF54E40E94170247
:100C3000DC01CB018D8B9E8BAF8BB88F6D897E894C
:100C40008F89988D20E030E040E85FE30E947103D7
:100C500088232CF481E090E09C8B8B8B3FC06D89C6
:100C60007E898F89988D20E03FEF4FE757E40E94FF
:100C7000110318164CF5698D7A8D8B8D9C8D20E0B3
:100C800030E040E251E40E941702DC01CB01BC01DC
:100C9000CD010E944100DC01CB019C8B8B8B0FC0EE
:100CA00088EC90E09A8B898B89899A890197F1F772
:100CB0009A8B898B8B899C8901979C8B8B8B8B89D9
:100CC0009C89009769F714C06D897E898F89988DFA
:100CD0000E944100DC01CB019C8B8B8B8B899C8912
:100CE000988B8F878F8598890197F1F7988B8F87DD
:100CF0008AE20E945A0F8E8D8F5F8E8F8E8D843088
:100D000008F472CF80E090E0AAE7B4E48B879C8778
:100D1000AD87BE876B857C858D859E8520E030E024
:100D20004AEF54E40E941702DC01CB018F839887BD
:100D3000A987BA876F81788589859A8520E030E018
:100D400040E85FE30E94710388232CF481E090E087
:100D50009E838D833FC06F81788589859A8520E049
:100D60003FEF4FE757E40E94110318164CF56B85CF
:100D70007C858D859E8520E030E040E251E40E9434
:100D80001702DC01CB01BC01CD010E944100DC0156
:100D9000CB019E838D830FC088EC90E09C838B8376
:100DA0008B819C810197F1F79C838B838D819E8140
:100DB00001979E838D838D819E81009769F714C072
:100DC0006F81788589859A850E944100DC01CB017D
:100DD0009E838D838D819E819A83898389819A8167
:100DE0000197F1F79A83898381E00E944A0E9E0160
:100DF0002D5D3F4F8AE0B9010E947914CE018396A0
:100E00009C012F5F3F4F8BE0B9010E947914CE0106
:100E100083969C012E5F3F4F8CE0B9010E947914AC
:100E2000CE0183969C012D5F3F4F8DE0B9010E945A
:100E300079149BA18F8D981771F49CA188A19817A4
:100E400051F49DA189A1981731F49EA18AA1981708
:100E500011F41FA202C081E08FA38FA1A7960FB645
:100E6000F894DEBF0FBECDBFCF91DF910895DF9321
:100E7000CF93CDB7DEB7A2970FB6F894DEBF0FBE03
:100E8000CDBF1E8E8BC084E28D8F03C00E948B135A
:100E90008D8F8D8D8432D1F38E8D282F30E0CE0151
:100EA0004F96FC01E20FF31F8D8D80838AE20E9432
:100EB0005A0F80E090E0A8ECB2E4898F9A8FAB8F54
:100EC000BC8F698D7A8D8B8D9C8D20E030E04AEF50
:100ED00054E40E941702DC01CB018D8B9E8BAF8BFB
:100EE000B88F6D897E898F89988D20E030E040E849
:100EF0005FE30E94710388232CF481E090E09C8BD7
:100F00008B8B3FC06D897E898F89988D20E03FEF64
:100F10004FE757E40E94110318164CF5698D7A8D3E
:100F20008B8D9C8D20E030E040E251E40E9417025E
:100F3000DC01CB01BC01CD010E944100DC01CB01F1
:100F40009C8B8B8B0FC088EC90E09A8B898B898966
:100F50009A890197F1F79A8B898B8B899C890197E4
:100F60009C8B8B8B8B899C89009769F714C06D894A
:100F70007E898F89988D0E944100DC01CB019C8B7A
:100F80008B8B8B899C89988B8F878F85988901970C
:100F9000F1F7988B8F878E8D8F5F8E8F8E8D84303B
:100FA00008F471CF80E090E0AAE7B4E48B879C87D7
:100FB000AD87BE876B857C858D859E8520E030E082
:100FC0004AEF54E40E941702DC01CB018F8398871B
:100FD000A987BA876F81788589859A8520E030E076
:100FE00040E85FE30E94710388232CF481E090E0E5
:100FF0009E838D833FC06F81788589859A8520E0A7
:101000003FEF4FE757E40E94110318164CF56B852C
:101010007C858D859E8520E030E040E251E40E9491
:101020001702DC01CB01BC01CD010E944100DC01B3
:10103000CB019E838D830FC088EC90E09C838B83D3
:101040008B819C810197F1F79C838B838D819E819D
:1010500001979E838D838D819E81009769F714C0CF
:101060006F81788589859A850E944100DC01CB01DA
:101070009E838D838D819E819A83898389819A81C4
:101080000197F1F79A83898381E00E944A0E9F8D30
:101090008AE0692F0E945D1498A18BE0692F0E945D
:1010A0005D1499A18CE0692F0E945D149AA18DE0D6
:1010B000692F0E945D14A2960FB6F894DEBF0FBE92
:1010C000CDBFCF91DF910895DF93CF93CDB7DEB73A
:1010D0006E970FB6F894DEBF0FBECDBF84E28D8F42
:1010E00003C00E948B138D8F8D8D8432D1F38D8D33
:1010F0008A3209F00BC10E94A7140E94370780E6CC
:1011000090E00E94721180E090E0AAE7B4E4898F39
:101110009A8FAB8FBC8F698D7A8D8B8D9C8D20E0E3
:1011200030E04AEF54E40E941702DC01CB018D8BC2
:101130009E8BAF8BB88F6D897E898F89988D20E0CB
:1011400030E040E85FE30E94710388232CF481E0E3
:1011500090E09C8B8B8B3FC06D897E898F89988DA9
:1011600020E03FEF4FE757E40E94110318164CF5BB
:10117000698D7A8D8B8D9C8D20E030E040E251E4CA
:101180000E941702DC01CB01BC01CD010E9441008D
:10119000DC01CB019C8B8B8B0FC088EC90E09A8B91
:1011A000898B89899A890197F1F79A8B898B8B8929
:1011B0009C8901979C8B8B8B8B899C89009769F705
:1011C00014C06D897E898F89988D0E944100DC0151
:1011D000CB019C8B8B8B8B899C89988B8F878F8580
:1011E00098890197F1F7988B8F8781E00E944A0ECA
:1011F00084E28D8F03C00E948B138D8F8D8D8A3278
:10120000D1F784E28D8F81E790E00E94721180E037
:1012100090E0AAE7B4E48B879C87AD87BE876B8597
:101220007C858D859E8520E030E04AEF54E40E9465
:101230001702DC01CB018F839887A987BA876F815A
:10124000788589859A8520E030E040E85FE30E9458
:10125000710388232CF481E090E09E838D833FC04E
:101260006F81788589859A8520E03FEF4FE757E4C5
:101270000E94110318164CF56B857C858D859E8523
:1012800020E030E040E251E40E941702DC01CB0193
:10129000BC01CD010E944100DC01CB019E838D8306
:1012A0000FC088EC90E09C838B838B819C8101979D
:1012B000F1F79C838B838D819E8101979E838D8323
:1012C0008D819E81009769F714C06F81788589852B
:1012D0009A850E944100DC01CB019E838D838D8124
:1012E0009E819A83898389819A810197F1F79A83F4
:1012F000898381E00E944A0E03C00E948B138D8F68
:101300008D8D8434D1F781E08E8F09C08D8D84342A
:1013100019F481E08E8F03C00E948C161E8E8E8D74
:101320006E960FB6F894DEBF0FBECDBFCF91DF91A2
:101330000895DF93CF930F92CDB7DEB78983E0E2B4
:10134000F0E082E08083A1E2B0E0E1E2F0E08081C1
:101350008E7F8C93A1E2B0E0E1E2F0E080818D7FAE
:101360008C938981882321F0E2E2F0E089818083F7
:10137000A6E5B0E0E6E5F0E0808184608C930F9014
:10138000CF91DF910895DF93CF930F92CDB7DEB762
:101390008983E2E2F0E089818083A6E5B0E0E6E5BA
:1013A000F0E0808184608C930F90CF91DF9108955D
:1013B000DF93CF930F92CDB7DEB71982A6E5B0E0E9
:1013C000E6E5F0E0808180688C93A6E5B0E0E6E594
:1013D000F0E0808180628C93A6E5B0E0E6E5F0E085
:1013E00080818F7E8C93A6E5B0E0E6E5F0E0808119
:1013F00084608C93E6E5F0E080818823DCF7E1E20D
:10140000F0E08081882F90E0887F9070883091058F
:1014100029F0E1E2F0E08081887F898389810F9063
:10142000CF91DF910895DF93CF930F92CDB7DEB7C1
:101430001982A6E5B0E0E6E5F0E0808180628C9359
:10144000A6E5B0E0E6E5F0E0808180688C93A6E553
:10145000B0E0E6E5F0E080818F7E8C93A6E5B0E019
:10146000E6E5F0E0808184608C93E6E5F0E0808141
:101470008823DCF789810F90CF91DF910895DF9366
:10148000CF9300D0CDB7DEB78A831982E3E2F0E0D4
:101490008A818E7F8083A6E5B0E0E6E5F0E080817A
:1014A00080688C93A6E5B0E0E6E5F0E080818F7D72
:1014B0008C93A6E5B0E0E6E5F0E0808184608C9353
:1014C000E6E5F0E080818823DCF7E1E2F0E080816E
:1014D000882F90E0887F90708831910529F0E1E2B3
:1014E000F0E08081887F898389810F900F90CF9170
:1014F000DF910895DF93CF9300D0CDB7DEB78A8315
:101500001982E3E2F0E08A81882F90E0880F991F2A
:101510008083A6E5B0E0E6E5F0E0808180688C930A
:10152000A6E5B0E0E6E5F0E080818F7D8C93A6E54E
:10153000B0E0E6E5F0E0808184608C93E6E5F0E0E1
:1015400080818823DCF7E1E2F0E08081882F90E061
:10155000887F90708034910529F0E1E2F0E080818D
:10156000887F898389810F900F90CF91DF910895B3
:10157000DF93CF9300D0CDB7DEB78A831982E3E241
:10158000F0E08A818083A6E5B0E0E6E5F0E08081C6
:1015900080688C93A6E5B0E0E6E5F0E080818460A9
:1015A0008C93E6E5F0E080818823DCF7E1E2F0E06F
:1015B0008081882F90E0887F90708832910529F093
:1015C000E1E2F0E08081887F898389810F900F902C
:1015D000CF91DF910895DF93CF9300D00F92CDB7D5
:1015E000DEB79B838A831982A6E5B0E0E6E5F0E0EA
:1015F000808180688C93A6E5B0E0E6E5F0E080812C
:1016000084608C93E6E5F0E080818823DCF7E3E2F8
:10161000F0E08081EA81FB818083E1E2F0E080817B
:10162000882F90E0887F90708035910529F0E1E265
:10163000F0E08081887F898389810F900F900F90DF
:10164000CF91DF910895DF93CF93CDB7DEB7A6E5B5
:10165000B0E0E6E5F0E0808180688C93A6E5B0E03C
:10166000E6E5F0E0808180618C93A6E5B0E0E6E5F8
:10167000F0E0808184608C93A6E5B0E0E6E5F0E0E0
:1016800080818F7D8C93CF91DF910895DF93CF93ED
:1016900000D000D0CDB7DEB789836A838981282F37
:1016A00030E03C832B838B819C8181309105D1F08C
:1016B0002B813C81223031052CF48B819C81009759
:1016C00061F01EC02B813C812230310581F08B817D
:1016D0009C818330910581F013C0EAE3F0E08A81B8
:1016E00080830EC0E7E3F0E08A81808309C0E4E3F1
:1016F000F0E08A81808304C0E1E3F0E08A818083A6
:101700000F900F900F900F90CF91DF910895DF937E
:10171000CF93CDB7DEB727970FB6F894DEBF0FBED5
:10172000CDBF89836A834B838A81883008F0EAC001
:101730008B81882309F074C08981282F30E03F8392
:101740002E838E819F818130910559F12E813F81B9
:10175000223031052CF48E819F81009769F0D2C030
:101760002E813F812230310589F18E819F81833026
:10177000910509F440C0C6C0AAE3B0E0EAE3F0E096
:101780008081482F8A81282F30E081E090E0022E6E
:1017900002C0880F991F0A94E2F7809584238C93E6
:1017A000B1C0A7E3B0E0E7E3F0E08081482F8A8191
:1017B000282F30E081E090E0022E02C0880F991FB0
:1017C0000A94E2F7809584238C939CC0A4E3B0E054
:1017D000E4E3F0E08081482F8A81282F30E081E027
:1017E00090E0022E02C0880F991F0A94E2F78095BC
:1017F00084238C9387C0A1E3B0E0E1E3F0E0808133
:10180000482F8A81282F30E081E090E0022E02C02C
:10181000880F991F0A94E2F7809584238C9372C0F5
:101820008B81813009F06EC08981282F30E03D83A3
:101830002C838C819D818130910549F12C813D81E2
:10184000223031052CF48C819D81009761F05AC0C3
:101850002C813D812230310571F18C819D81833055
:101860009105E9F14FC0AAE3B0E0EAE3F0E080813E
:10187000482F8A81282F30E081E090E0022E02C0BC
:10188000880F991F0A94E2F7842B8C933BC0A7E33F
:10189000B0E0E7E3F0E08081482F8A81282F30E034
:1018A00081E090E0022E02C0880F991F0A94E2F7AF
:1018B000842B8C9327C0A4E3B0E0E4E3F0E08081C4
:1018C000482F8A81282F30E081E090E0022E02C06C
:1018D000880F991F0A94E2F7842B8C9313C0A1E31D
:1018E000B0E0E1E3F0E08081482F8A81282F30E0EA
:1018F00081E090E0022E02C0880F991F0A94E2F75F
:10190000842B8C9327960FB6F894DEBF0FBECDBF05
:10191000CF91DF910895DF93CF9300D000D0CDB762
:10192000DEB789836A838981282F30E03C832B834B
:101930008B819C8181309105D1F02B813C812230BB
:1019400031052CF48B819C81009761F01EC02B81A6
:101950003C812230310581F08B819C81833091055F
:1019600081F013C0EBE3F0E08A8180830EC0E8E3EE
:10197000F0E08A81808309C0E5E3F0E08A8180831A
:1019800004C0E2E3F0E08A8180830F900F900F9013
:101990000F90CF91DF910895DF93CF93CDB7DEB74E
:1019A00027970FB6F894DEBF0FBECDBF89836A8339
:1019B0004B838A81883008F0EAC08B81882309F044
:1019C00074C08981282F30E03F832E838E819F81D0
:1019D0008130910559F12E813F81223031052CF45F
:1019E0008E819F81009769F0D2C02E813F81223085
:1019F000310589F18E819F818330910509F440C0C2
:101A0000C6C0ABE3B0E0EBE3F0E08081482F8A8111
:101A1000282F30E081E090E0022E02C0880F991F4D
:101A20000A94E2F7809584238C93B1C0A8E3B0E0D8
:101A3000E8E3F0E08081482F8A81282F30E081E0C0
:101A400090E0022E02C0880F991F0A94E2F7809559
:101A500084238C939CC0A5E3B0E0E5E3F0E08081B3
:101A6000482F8A81282F30E081E090E0022E02C0CA
:101A7000880F991F0A94E2F7809584238C9387C07E
:101A8000A2E3B0E0E2E3F0E08081482F8A81282FD2
:101A900030E081E090E0022E02C0880F991F0A9486
:101AA000E2F7809584238C9372C08B81813009F09A
:101AB0006EC08981282F30E03D832C838C819D81ED
:101AC0008130910549F12C813D81223031052CF482
:101AD0008C819D81009761F05AC02C813D8122301C
:101AE000310571F18C819D8183309105E9F14FC001
:101AF000ABE3B0E0EBE3F0E08081482F8A81282F50
:101B000030E081E090E0022E02C0880F991F0A9415
:101B1000E2F7842B8C933BC0A8E3B0E0E8E3F0E06D
:101B20008081482F8A81282F30E081E090E0022ECA
:101B300002C0880F991F0A94E2F7842B8C9327C068
:101B4000A5E3B0E0E5E3F0E08081482F8A81282F0B
:101B500030E081E090E0022E02C0880F991F0A94C5
:101B6000E2F7842B8C9313C0A2E3B0E0E2E3F0E051
:101B70008081482F8A81282F30E081E090E0022E7A
:101B800002C0880F991F0A94E2F7842B8C93279642
:101B90000FB6F894DEBF0FBECDBFCF91DF91089591
:101BA000DF93CF9300D000D00F92CDB7DEB78A83FA
:101BB0006B8319828A81282F30E03D832C834C81EE
:101BC0005D814130510541F18C819D8182309105CB
:101BD00034F42C813D812115310561F052C04C81D6
:101BE0005D814230510551F18C819D818330910599
:101BF000B9F147C0E9E3F0E08081282F30E08B8124
:101C0000882F90E0A90102C0559547958A95E2F783
:101C1000CA018170898335C0E6E3F0E08081282F16
:101C200030E08B81882F90E0A90102C0559547953F
:101C30008A95E2F7CA018170898323C0E3E3F0E06B
:101C40008081282F30E08B81882F90E0A90102C08D
:101C5000559547958A95E2F7CA018170898311C02D
:101C6000E0E3F0E08081282F30E08B81882F90E046
:101C7000A90102C0559547958A95E2F7CA0181707E
:101C8000898389810F900F900F900F900F90CF91C3
:101C9000DF910895DF93CF93CDB7DEB76D970FB681
:101CA000F894DEBF0FBECDBF8D8F83E060E040E0D3
:101CB0000E94CC0C83E061E040E00E94CC0C80E00C
:101CC0006D8D0E948B0C83E062E041E00E94CC0CA1
:101CD00080E090E0A0E0B0E4898F9A8FAB8FBC8F5A
:101CE000698D7A8D8B8D9C8D20E030E04AEF54E435
:101CF0000E941702DC01CB018D8B9E8BAF8BB88FBE
:101D00006D897E898F89988D20E030E040E85FE31F
:101D10000E94710388232CF481E090E09C8B8B8BD4
:101D20003FC06D897E898F89988D20E03FEF4FE716
:101D300057E40E94110318164CF5698D7A8D8B8D2E
:101D40009C8D20E030E040E251E40E941702DC016B
:101D5000CB01BC01CD010E944100DC01CB019C8B79
:101D60008B8B0FC088EC90E09A8B898B89899A893C
:101D70000197F1F79A8B898B8B899C8901979C8BB2
:101D80008B8B8B899C89009769F714C06D897E893C
:101D90008F89988D0E944100DC01CB019C8B8B8B3D
:101DA0008B899C89988B8F878F8598890197F1F70C
:101DB000988B8F8783E062E040E00E94CC0C80E04B
:101DC00090E0A0E0B0E48B879C87AD87BE876B85F1
:101DD0007C858D859E8520E030E04AEF54E40E94AA
:101DE0001702DC01CB018F839887A987BA876F819F
:101DF000788589859A8520E030E040E85FE30E949D
:101E0000710388232CF481E090E09E838D833FC092
:101E10006F81788589859A8520E03FEF4FE757E409
:101E20000E94110318164CF56B857C858D859E8567
:101E300020E030E040E251E40E941702DC01CB01D7
:101E4000BC01CD010E944100DC01CB019E838D834A
:101E50000FC088EC90E09C838B838B819C810197E1
:101E6000F1F79C838B838D819E8101979E838D8367
:101E70008D819E81009769F714C06F81788589856F
:101E80009A850E944100DC01CB019E838D838D8168
:101E90009E819A83898389819A810197F1F79A8338
:101EA00089836D960FB6F894DEBF0FBECDBFCF917C
:101EB000DF910895DF93CF93CDB7DEB76D970FB65F
:101EC000F894DEBF0FBECDBF8D8F83E060E041E0B0
:101ED0000E94CC0C83E061E040E00E94CC0C80E0EA
:101EE0006D8D0E948B0C83E062E041E00E94CC0C7F
:101EF00080E090E0A0E0B0E4898F9A8FAB8FBC8F38
:101F0000698D7A8D8B8D9C8D20E030E04AEF54E412
:101F10000E941702DC01CB018D8B9E8BAF8BB88F9B
:101F20006D897E898F89988D20E030E040E85FE3FD
:101F30000E94710388232CF481E090E09C8B8B8BB2
:101F40003FC06D897E898F89988D20E03FEF4FE7F4
:101F500057E40E94110318164CF5698D7A8D8B8D0C
:101F60009C8D20E030E040E251E40E941702DC0149
:101F7000CB01BC01CD010E944100DC01CB019C8B57
:101F80008B8B0FC088EC90E09A8B898B89899A891A
:101F90000197F1F79A8B898B8B899C8901979C8B90
:101FA0008B8B8B899C89009769F714C06D897E891A
:101FB0008F89988D0E944100DC01CB019C8B8B8B1B
:101FC0008B899C89988B8F878F8598890197F1F7EA
:101FD000988B8F8783E062E040E00E94CC0C80E029
:101FE00090E0A0E0B0E48B879C87AD87BE876B85CF
:101FF0007C858D859E8520E030E04AEF54E40E9488
:102000001702DC01CB018F839887A987BA876F817C
:10201000788589859A8520E030E040E85FE30E947A
:10202000710388232CF481E090E09E838D833FC070
:102030006F81788589859A8520E03FEF4FE757E4E7
:102040000E94110318164CF56B857C858D859E8545
:1020500020E030E040E251E40E941702DC01CB01B5
:10206000BC01CD010E944100DC01CB019E838D8328
:102070000FC088EC90E09C838B838B819C810197BF
:10208000F1F79C838B838D819E8101979E838D8345
:102090008D819E81009769F714C06F81788589854D
:1020A0009A850E944100DC01CB019E838D838D8146
:1020B0009E819A83898389819A810197F1F79A8316
:1020C00089836D960FB6F894DEBF0FBECDBFCF915A
:1020D000DF910895DF93CF93CDB7DEB76C970FB63E
:1020E000F894DEBF0FBECDBF83E06FEF0E94460BBA
:1020F00080E06FEF0E94460B80E090E0ACE0B2E43D
:10210000898F9A8FAB8FBC8F698D7A8D8B8D9C8DCB
:1021100020E030E04AEF54E40E941702DC01CB01DA
:102120008D8B9E8BAF8BB88F6D897E898F89988DB3
:1021300020E030E040E85FE30E94710388232CF444
:1021400081E090E09C8B8B8B3FC06D897E898F896D
:10215000988D20E03FEF4FE757E40E9411031816D7
:102160004CF5698D7A8D8B8D9C8D20E030E040E2BE
:1021700051E40E941702DC01CB01BC01CD010E9499
:102180004100DC01CB019C8B8B8B0FC088EC90E075
:102190009A8B898B89899A890197F1F79A8B898B18
:1021A0008B899C8901979C8B8B8B8B899C89009751
:1021B00069F714C06D897E898F89988D0E944100CE
:1021C000DC01CB019C8B8B8B8B899C89988B8F87B7
:1021D0008F8598890197F1F7988B8F8788E30E9404
:1021E0004A0E8FE00E944A0E81E00E944A0E80E073
:1021F00090E0A0E0B0E48B879C87AD87BE876B85BD
:102200007C858D859E8520E030E04AEF54E40E9475
:102210001702DC01CB018F839887A987BA876F816A
:10222000788589859A8520E030E040E85FE30E9468
:10223000710388232CF481E090E09E838D833FC05E
:102240006F81788589859A8520E03FEF4FE757E4D5
:102250000E94110318164CF56B857C858D859E8533
:1022600020E030E040E251E40E941702DC01CB01A3
:10227000BC01CD010E944100DC01CB019E838D8316
:102280000FC088EC90E09C838B838B819C810197AD
:10229000F1F79C838B838D819E8101979E838D8333
:1022A0008D819E81009769F714C06F81788589853B
:1022B0009A850E944100DC01CB019E838D838D8134
:1022C0009E819A83898389819A810197F1F79A8304
:1022D00089836C960FB6F894DEBF0FBECDBFCF9149
:1022E000DF910895DF93CF9300D00F92CDB7DEB783
:1022F0009B838A8319820EC08981282F30E08A81CE
:102300009B81FC01E20FF31F80810E945A0F89819B
:102310008F5F89838981282F30E08A819B81FC012E
:10232000E20FF31F8081882339F70F900F900F90F1
:10233000CF91DF910895DF93CF9300D00F92CDB767
:10234000DEB78A836B838B81882319F48A81898322
:1023500006C08B81813019F48A81805C89838981F0
:1023600080580E944A0E0F900F900F90CF91DF91EE
:102370000895DF93CF9300D0CDB7DEB79A838983DA
:102380000AC0E981FA8180810E945A0F89819A816D
:1023900001969A838983E981FA818081882389F76C
:1023A0000F900F90CF91DF910895DF93CF9300D0DE
:1023B0000F92CDB7DEB79B838A838A819B8127E208
:1023C0008031920708F487C08A819B8120E137E23F
:1023D000B9010E94341BCB0189838981805D0E94F1
:1023E0005A0F8981282F30E080E197E2A901489FA8
:1023F0009001499F300D589F300D11248A819B8197
:10240000821B930B9B838A838A819B8128EE33E016
:10241000B9010E94341BCB0189838981805D0E94B0
:102420005A0F8981282F30E088EE93E0A901489F58
:102430009001499F300D589F300D11248A819B8156
:10244000821B930B9B838A838A819B8124E630E0E5
:10245000B9010E94341BCB0189838981805D0E9470
:102460005A0F8981282F30E08CE99FEFAC01249F1F
:10247000C001259F900D349F900D11249C018A81ED
:102480009B81820F931F9B838A838A819B812AE091
:1024900030E0B9010E94341BCB0189838981805DC2
:1024A0000E945A0F8981882F90E09C01220F331FD0
:1024B000C901880F991F880F991F820F931F90954C
:1024C00081959F4F982F8A81890F89838981805DAB
:1024D0000E945A0FE7C08A819B8153E0883E95078E
:1024E00008F467C08A819B8128EE33E0B9010E941D
:1024F000341BCB0189838981805D0E945A0F8981B9
:10250000282F30E088EE93E0A901489F9001499F71
:10251000300D589F300D11248A819B81821B930BB3
:102520009B838A838A819B8124E630E0B9010E94E3
:10253000341BCB0189838981805D0E945A0F898178
:10254000282F30E08CE99FEFAC01249FC001259F2C
:10255000900D349F900D11249C018A819B81820FE4
:10256000931F9B838A838A819B812AE030E0B90193
:102570000E94341BCB0189838981805D0E945A0FA0
:102580008981882F90E09C01220F331FC901880F99
:10259000991F880F991F820F931F909581959F4FC8
:1025A000982F8A81890F89838981805D0E945A0FC3
:1025B00079C08A819B818436910508F447C08A815D
:1025C0009B8124E630E0B9010E94341BCB01898352
:1025D0008981805D0E945A0F8981282F30E08CE923
:1025E0009FEFAC01249FC001259F900D349F900D5B
:1025F00011249C018A819B81820F931F9B838A8374
:102600008A819B812AE030E0B9010E94341BCB0112
:1026100089838981805D0E945A0F8981882F90E08B
:102620009C01220F331FC901880F991F880F991F22
:10263000820F931F909581959F4F982F8A81890FC4
:1026400089838981805D0E945A0F2CC08A819B8179
:102650008A30910518F18A819AE0692F0E94281B1F
:1026600089838981805D0E945A0F8981882F90E03B
:102670009C01220F331FC901880F991F880F991FD2
:10268000820F931F909581959F4F982F8A81890F74
:1026900089838981805D0E945A0F04C08A81805D90
:1026A0000E945A0F0F900F900F90CF91DF910895D5
:1026B000DF93CF93CDB7DEB781E060E041E00E94C9
:1026C000870B81E061E041E00E94870B81E062E0DE
:1026D00041E00E94870B81E063E041E00E94870BAC
:1026E00081E064E040E00E94870B81E065E040E02B
:1026F0000E94870B81E066E040E00E94870B81E04A
:1027000067E040E00E94870B81E06FEF0E948B0C36
:10271000CF91DF910895DF93CF93CDB7DEB7619767
:102720000FB6F894DEBF0FBECDBF84E2898B188A46
:10273000ACC081E0688940E00E94CC0C84E08F87C7
:1027400098C081E06F850E94D00D882309F08EC06B
:102750008F85882F90E0AC01445050408889282F05
:1027600030E0CA01880F991F880F991F820F931FAD
:10277000FC01E251FF4F8081898B81E06F850E94CF
:10278000D00D8823D1F380E090E0A0EAB1E48B87FC
:102790009C87AD87BE876B857C858D859E8520E077
:1027A00030E04AEF54E40E941702DC01CB018F8332
:1027B0009887A987BA876F81788589859A8520E06F
:1027C00030E040E85FE30E94710388232CF481E04D
:1027D00090E09E838D833FC06F81788589859A853F
:1027E00020E03FEF4FE757E40E94110318164CF525
:1027F0006B857C858D859E8520E030E040E251E44C
:102800000E941702DC01CB01BC01CD010E944100F6
:10281000DC01CB019E838D830FC088EC90E09C830C
:102820008B838B819C810197F1F79C838B838D81B6
:102830009E8101979E838D838D819E81009769F78C
:102840001CC06F81788589859A850E944100DC01D2
:10285000CB019E838D838D819E819A83898389811B
:102860009A810197F1F79A83898307C08F858F5FDB
:102870008F878F85883008F464CF81E0688941E0D4
:102880000E94CC0C88898F5F888B8889843008F4FB
:1028900050CF898961960FB6F894DEBF0FBECDBFC9
:1028A000CF91DF910895DF93CF93CDB7DEB784EA60
:1028B0000E949909CF91DF910895DF93CF9300D0C3
:1028C0000F92CDB7DEB78A836B8319820E94D80935
:1028D00080EA0E943F0A8A810E94B80A8B810E9486
:1028E000B80A0E94230B0F900F900F90CF91DF91A9
:1028F0000895DF93CF9300D00F92CDB7DEB78983D1
:102900007B836A830E94D80980EA0E943F0A8981FA
:102910000E94B80A0E94130A81EA0E94B80A8A81BA
:102920009B810E94EB0A0E94230B0F900F900F9047
:10293000CF91DF910895DF93CF93CDB7DEB782E0DB
:1029400063E041E00E94870BCF91DF910895DF9310
:10295000CF93CDB7DEB7E8970FB6F894DEBF0FBEC2
:10296000CDBF82E063E041E00E94CC0C80E090E0CB
:10297000AAE7B4E48DAB9EABAFABB8AF6DA97EA9AF
:102980008FA998AD20E030E04AEF54E40E9417028E
:10299000DC01CB0189AB9AABABABBCAB69A97AA923
:1029A0008BA99CA920E030E040E85FE30E9471031E
:1029B00088232CF481E090E098AB8FA73FC069A9F1
:1029C0007AA98BA99CA920E03FEF4FE757E40E942A
:1029D000110318164CF56DA97EA98FA998AD20E0BA
:1029E00030E040E251E40E941702DC01CB01BC015F
:1029F000CD010E944100DC01CB0198AB8FA70FC035
:102A000088EC90E09EA78DA78DA59EA50197F1F774
:102A10009EA78DA78FA598A9019798AB8FA78FA583
:102A200098A9009769F714C069A97AA98BA99CA9EC
:102A30000E944100DC01CB0198AB8FA78FA598A91C
:102A40009CA78BA78BA59CA50197F1F79CA78BA7AB
:102A500080E090E0AAE7B4E48FA398A7A9A7BAA75B
:102A60006FA178A589A59AA520E030E04AEF54E44B
:102A70000E941702DC01CB018BA39CA3ADA3BEA3D4
:102A80006BA17CA18DA19EA120E030E040E85FE336
:102A90000E94710388232CF481E090E09AA389A31B
:102AA0003FC06BA17CA18DA19EA120E03FEF4FE72D
:102AB00057E40E94110318164CF56FA178A589A55B
:102AC0009AA520E030E040E251E40E941702DC01C8
:102AD000CB01BC01CD010E944100DC01CB019AA3D6
:102AE00089A30FC088EC90E098A38F8F8F8D98A159
:102AF0000197F1F798A38F8F89A19AA101979AA3C3
:102B000089A389A19AA1009769F714C06BA17CA140
:102B10008DA19EA10E944100DC01CB019AA389A353
:102B200089A19AA19E8F8D8F8D8D9E8D0197F1F732
:102B30009E8F8D8F80E090E0AAE7B4E4898F9A8F12
:102B4000AB8FBC8F698D7A8D8B8D9C8D20E030E0B2
:102B50004AEF54E40E941702DC01CB018D8B9E8B5F
:102B6000AF8BB88F6D897E898F89988D20E030E09A
:102B700040E85FE30E94710388232CF481E090E039
:102B80009C8B8B8B3FC06D897E898F89988D20E0CF
:102B90003FEF4FE757E40E94110318164CF5698D7B
:102BA0007A8D8B8D9C8D20E030E040E251E40E94D4
:102BB0001702DC01CB01BC01CD010E944100DC0108
:102BC000CB019C8B8B8B0FC088EC90E09A8B898B10
:102BD00089899A890197F1F79A8B898B8B899C89CE
:102BE00001979C8B8B8B8B899C89009769F714C00C
:102BF0006D897E898F89988D0E944100DC01CB010F
:102C00009C8B8B8B8B899C89988B8F878F859889E0
:102C10000197F1F7988B8F8782E063E040E00E9494
:102C2000CC0C80E090E0A8ECB2E48B879C87AD8769
:102C3000BE876B857C858D859E8520E030E04AEFE0
:102C400054E40E941702DC01CB018F839887A98787
:102C5000BA876F81788589859A8520E030E040E8E1
:102C60005FE30E94710388232CF481E090E09E834F
:102C70008D833FC06F81788589859A8520E03FEFFD
:102C80004FE757E40E94110318164CF56B857C85BD
:102C90008D859E8520E030E040E251E40E941702DD
:102CA000DC01CB01BC01CD010E944100DC01CB0164
:102CB0009E838D830FC088EC90E09C838B838B81F7
:102CC0009C810197F1F79C838B838D819E81019775
:102CD0009E838D838D819E81009769F714C06F81DB
:102CE000788589859A850E944100DC01CB019E830D
:102CF0008D838D819E819A83898389819A810197B1
:102D0000F1F79A838983E8960FB6F894DEBF0FBE79
:102D1000CDBFCF91DF910895DF93CF93CDB7DEB7CD
:102D20006C970FB6F894DEBF0FBECDBF82E063E0B4
:102D300041E00E94CC0C80E090E0A8ECB2E4898FE6
:102D40009A8FAB8FBC8F698D7A8D8B8D9C8D20E097
:102D500030E04AEF54E40E941702DC01CB018D8B76
:102D60009E8BAF8BB88F6D897E898F89988D20E07F
:102D700030E040E85FE30E94710388232CF481E097
:102D800090E09C8B8B8B3FC06D897E898F89988D5D
:102D900020E03FEF4FE757E40E94110318164CF56F
:102DA000698D7A8D8B8D9C8D20E030E040E251E47E
:102DB0000E941702DC01CB01BC01CD010E94410041
:102DC000DC01CB019C8B8B8B0FC088EC90E09A8B45
:102DD000898B89899A890197F1F79A8B898B8B89DD
:102DE0009C8901979C8B8B8B8B899C89009769F7B9
:102DF00014C06D897E898F89988D0E944100DC0105
:102E0000CB019C8B8B8B8B899C89988B8F878F8533
:102E100098890197F1F7988B8F8782E063E040E013
:102E20000E94CC0C80E090E0A0E2B1E48B879C870C
:102E3000AD87BE876B857C858D859E8520E030E0E3
:102E40004AEF54E40E941702DC01CB018F8398877C
:102E5000A987BA876F81788589859A8520E030E0D7
:102E600040E85FE30E94710388232CF481E090E046
:102E70009E838D833FC06F81788589859A8520E008
:102E80003FEF4FE757E40E94110318164CF56B858E
:102E90007C858D859E8520E030E040E251E40E94F3
:102EA0001702DC01CB01BC01CD010E944100DC0115
:102EB000CB019E838D830FC088EC90E09C838B8335
:102EC0008B819C810197F1F79C838B838D819E81FF
:102ED00001979E838D838D819E81009769F714C031
:102EE0006F81788589859A850E944100DC01CB013C
:102EF0009E838D838D819E819A83898389819A8126
:102F00000197F1F79A8389836C960FB6F894DEBF28
:102F10000FBECDBFCF91DF9108950F931F93DF9325
:102F2000CF93CDB7DEB7C655D0400FB6F894DEBF0D
:102F30000FBECDBF0E949B0582E890E00E947211F7
:102F4000FE01EF5AFF4F80E090E0AAE7B4E48083EF
:102F50009183A283B3838E01035B1F4FFE01EF5A5F
:102F6000FF4F608171818281938120E030E04AEFE0
:102F700054E40E941702DC01CB01F80180839183A5
:102F8000A283B383FE01E35BFF4F60817181828185
:102F9000938120E030E040E85FE30E9471038823E2
:102FA00044F4FE01E55BFF4F81E090E09183808374
:102FB00064C0FE01E35BFF4F608171818281938178
:102FC00020E03FEF4FE757E40E94110318160CF082
:102FD00043C0FE01EF5AFF4F60817181828193816E
:102FE00020E030E040E251E40E941702DC01CB0116
:102FF0008E01055B1F4FBC01CD010E944100DC0129
:10300000CB01F801918380831FC0FE01E75BFF4F76
:1030100088EC90E091838083FE01E75BFF4F808125
:1030200091810197F1F7FE01E75BFF4F9183808368
:10303000DE01A55BBF4FFE01E55BFF4F8081918103
:10304000019711969C938E93FE01E55BFF4F808163
:1030500091810097D1F627C08E01055B1F4FFE01BD
:10306000E35BFF4F60817181828193810E94410007
:10307000DC01CB01F80191838083DE01A95BBF4FA6
:10308000FE01E55BFF4F808191818D939C93FE0152
:10309000E95BFF4F808191810197F1F7FE01E95BC8
:1030A000FF4F9183808381E00E944A0EFE01EA5A1D
:1030B000FF4F81E080830E94AF058AE890E00E9484
:1030C0007211FE01ED5BFF4F80E090E0AAE7B4E4EF
:1030D00080839183A283B3838E01015C1F4FFE0125
:1030E000ED5BFF4F608171818281938120E030E050
:1030F0004AEF54E40E941702DC01CB01F8018083FF
:103100009183A283B383FE01FF96608171818281E6
:10311000938120E030E040E85FE30E947103882360
:103120002CF481E090E09EAF8DAF46C0FE01FF968B
:10313000608171818281938120E03FEF4FE757E406
:103140000E941103181664F5FE01ED5BFF4F6081CC
:1031500071818281938120E030E040E251E40E945D
:103160001702DC01CB01BC01CD010E944100DC0152
:10317000CB019EAF8DAF0FC088EC90E09CAF8BAFC2
:103180008BAD9CAD0197F1F79CAF8BAF8DAD9EAD34
:1031900001979EAF8DAF8DAD9EAD009769F716C0BC
:1031A000FE01FF9660817181828193810E944100BE
:1031B000DC01CB019EAF8DAF8DAD9EAD9AAF89AFD7
:1031C00089AD9AAD0197F1F79AAF89AF81E00E947E
:1031D0004A0E0E94E805FE01EB5AFF4F808308C0AB
:1031E0000E94A7140E94E805FE01EB5AFF4F80835E
:1031F000FE01EB5AFF4F8081882391F7FE01EA5AC6
:10320000FF4F1082FE01EA5AFF4F8081882309F0A8
:1032100008C182E064E041E00E94CC0C8AE990E0C1
:103220000E94721180E090E0AAE7B4E48DAB9EABFF
:10323000AFABB8AF6DA97EA98FA998AD20E030E003
:103240004AEF54E40E941702DC01CB0189AB9AAB30
:10325000ABABBCAB69A97AA98BA99CA920E030E0F3
:1032600040E85FE30E94710388232CF481E090E042
:1032700098AB8FA73FC069A97AA98BA99CA920E028
:103280003FEF4FE757E40E94110318164CF56DA964
:103290007EA98FA998AD20E030E040E251E40E9481
:1032A0001702DC01CB01BC01CD010E944100DC0111
:1032B000CB0198AB8FA70FC088EC90E09EA78DA79D
:1032C0008DA59EA50197F1F79EA78DA78FA598A91B
:1032D000019798AB8FA78FA598A9009769F714C09D
:1032E00069A97AA98BA99CA90E944100DC01CB01A4
:1032F00098AB8FA78FA598A99CA78BA78BA59CA5FA
:103300000197F1F79CA78BA781E00E944A0E87EAFC
:1033100090E00E94721180E090E061E070E00E9415
:103320009B1188EB90E00E94721180E090E0AAE788
:10333000B4E48FA398A7A9A7BAA76FA178A589A578
:103340009AA520E030E04AEF54E40E941702DC0125
:10335000CB018BA39CA3ADA3BEA36BA17CA18DA12C
:103360009EA120E030E040E85FE30E9471038823E3
:103370002CF481E090E09AA389A33FC06BA17CA1CB
:103380008DA19EA120E03FEF4FE757E40E9411037B
:1033900018164CF56FA178A589A59AA520E030E014
:1033A00040E251E40E941702DC01CB01BC01CD01D7
:1033B0000E944100DC01CB019AA389A30FC088ECD5
:1033C00090E098A38F8F8F8D98A10197F1F798A324
:1033D0008F8F89A19AA101979AA389A389A19AA104
:1033E000009769F714C06BA17CA18DA19EA10E94DA
:1033F0004100DC01CB019AA389A389A19AA19E8FE8
:103400008D8F8D8D9E8D0197F1F79E8F8D8F81E031
:103410000E944A0E0E946408FE01EA5AFF4F808310
:10342000F1CE82E064E040E00E94CC0C81E00E949A
:103430004A0E88EC90E00E94721180E090E0AAE7CA
:10344000B4E4898F9A8FAB8FBC8F698D7A8D8B8D09
:103450009C8D20E030E04AEF54E40E941702DC012A
:10346000CB018D8B9E8BAF8BB88F6D897E898F89B9
:10347000988D20E030E040E85FE30E9471038823EC
:103480002CF481E090E09C8B8B8B3FC06D897E8912
:103490008F89988D20E03FEF4FE757E40E9411039A
:1034A00018164CF5698D7A8D8B8D9C8D20E030E05F
:1034B00040E251E40E941702DC01CB01BC01CD01C6
:1034C0000E944100DC01CB019C8B8B8B0FC088ECF0
:1034D00090E09A8B898B89899A890197F1F79A8B69
:1034E000898B8B899C8901979C8B8B8B8B899C8981
:1034F000009769F714C06D897E898F89988D0E9425
:103500004100DC01CB019C8B8B8B8B899C89988B38
:103510008F878F8598890197F1F7988B8F8781E046
:103520000E944A0E80E090E0A8ECB2E48B879C8772
:10353000AD87BE876B857C858D859E8520E030E0DC
:103540004AEF54E40E941702DC01CB018F83988775
:10355000A987BA876F81788589859A8520E030E0D0
:1035600040E85FE30E94710388232CF481E090E03F
:103570009E838D833FC06F81788589859A8520E001
:103580003FEF4FE757E40E94110318164CF56B8587
:103590007C858D859E8520E030E040E251E40E94EC
:1035A0001702DC01CB01BC01CD010E944100DC010E
:1035B000CB019E838D830FC088EC90E09C838B832E
:1035C0008B819C810197F1F79C838B838D819E81F8
:1035D00001979E838D838D819E81009769F714C02A
:1035E0006F81788589859A850E944100DC01CB0135
:1035F0009E838D838D819E819A83898389819A811F
:103600000197F1F79A83898387ED90E00E94721108
:1036100080E090E061E070E00E949B110E94E8056C
:10362000FE01EB5AFF4F808308C00E94A7140E943E
:10363000E805FE01EB5AFF4F8083FE01EB5AFF4F76
:103640008081882391F7FE01EA5AFF4F1082DACD7C
:10365000991B79E004C0991F961708F0961B881FE4
:103660007A95C9F780950895AA1BBB1B51E107C045
:10367000AA1FBB1FA617B70710F0A61BB70B881F02
:10368000991F5A95A9F780959095BC01CD01089591
:103690002F923F924F925F926F927F928F929F9262
:1036A000AF92BF92CF92DF92EF92FF920F931F9350
:1036B000CF93DF93CDB7DEB7CA1BDB0B0FB6F89401
:1036C000DEBF0FBECDBF09942A88398848885F8441
:1036D0006E847D848C849B84AA84B984C884DF80B2
:1036E000EE80FD800C811B81AA81B981CE0FD11D96
:1036F0000FB6F894DEBF0FBECDBFED010895F8946C
:02370000FFCFF9
:10370200746F20636F6E6669726D20707764202A11
:1037120000746F20636C6F736520646F6F72204456
:10372200200057656C636F6D6500456E746572208D
:10373200696E697420636F646500446F6F722069FB
:1037420073206F70656E00746F206368616E6765C9
:1037520020636F6465202A00746F20636C6F736549
:1037620020646F6F72204400446F6F72206973206F
:10377200636C6F73656400456E746572207061736B
:1037820073776F7264000000000000000000373899
:0E379200392F3435362A3132332D44303D2B59
:00000001FF
